{
  "contractName": "IoT",
  "abi": [
    {
      "constant": true,
      "inputs": [
        {
          "internalType": "uint256",
          "name": "",
          "type": "uint256"
        }
      ],
      "name": "new_list",
      "outputs": [
        {
          "internalType": "address",
          "name": "owner",
          "type": "address"
        },
        {
          "internalType": "string",
          "name": "username",
          "type": "string"
        },
        {
          "internalType": "uint256",
          "name": "password",
          "type": "uint256"
        }
      ],
      "payable": false,
      "stateMutability": "view",
      "type": "function"
    },
    {
      "constant": true,
      "inputs": [],
      "name": "owner",
      "outputs": [
        {
          "internalType": "address",
          "name": "",
          "type": "address"
        }
      ],
      "payable": false,
      "stateMutability": "view",
      "type": "function"
    },
    {
      "constant": false,
      "inputs": [
        {
          "internalType": "address",
          "name": "_owner",
          "type": "address"
        },
        {
          "internalType": "string",
          "name": "_username",
          "type": "string"
        },
        {
          "internalType": "uint256",
          "name": "_password",
          "type": "uint256"
        }
      ],
      "name": "create_profile",
      "outputs": [],
      "payable": false,
      "stateMutability": "nonpayable",
      "type": "function"
    },
    {
      "constant": false,
      "inputs": [
        {
          "internalType": "uint256",
          "name": "_id",
          "type": "uint256"
        },
        {
          "internalType": "uint256",
          "name": "_devid",
          "type": "uint256"
        },
        {
          "internalType": "string",
          "name": "_sensor",
          "type": "string"
        },
        {
          "internalType": "string",
          "name": "_topic",
          "type": "string"
        },
        {
          "internalType": "string",
          "name": "_symbol",
          "type": "string"
        }
      ],
      "name": "create_device",
      "outputs": [],
      "payable": false,
      "stateMutability": "nonpayable",
      "type": "function"
    },
    {
      "constant": false,
      "inputs": [
        {
          "internalType": "uint256",
          "name": "_id",
          "type": "uint256"
        },
        {
          "internalType": "uint256",
          "name": "_postid",
          "type": "uint256"
        },
        {
          "internalType": "string",
          "name": "_post",
          "type": "string"
        },
        {
          "internalType": "string",
          "name": "_symbol",
          "type": "string"
        },
        {
          "internalType": "uint256",
          "name": "_likes",
          "type": "uint256"
        },
        {
          "internalType": "uint256",
          "name": "_tipamount",
          "type": "uint256"
        }
      ],
      "name": "create_post",
      "outputs": [],
      "payable": false,
      "stateMutability": "nonpayable",
      "type": "function"
    },
    {
      "constant": true,
      "inputs": [
        {
          "internalType": "uint256",
          "name": "_id",
          "type": "uint256"
        }
      ],
      "name": "get_all_device",
      "outputs": [
        {
          "components": [
            {
              "internalType": "uint256",
              "name": "id",
              "type": "uint256"
            },
            {
              "internalType": "uint256",
              "name": "devid",
              "type": "uint256"
            },
            {
              "internalType": "string",
              "name": "sensor",
              "type": "string"
            },
            {
              "internalType": "string",
              "name": "topic",
              "type": "string"
            },
            {
              "internalType": "string",
              "name": "symbol",
              "type": "string"
            }
          ],
          "internalType": "struct IoT.Device[]",
          "name": "",
          "type": "tuple[]"
        }
      ],
      "payable": false,
      "stateMutability": "view",
      "type": "function"
    },
    {
      "constant": true,
      "inputs": [
        {
          "internalType": "uint256",
          "name": "_id",
          "type": "uint256"
        }
      ],
      "name": "get_all_post",
      "outputs": [
        {
          "components": [
            {
              "internalType": "uint256",
              "name": "id",
              "type": "uint256"
            },
            {
              "internalType": "uint256",
              "name": "postid",
              "type": "uint256"
            },
            {
              "internalType": "string",
              "name": "post",
              "type": "string"
            },
            {
              "internalType": "string",
              "name": "symbol",
              "type": "string"
            },
            {
              "internalType": "uint256",
              "name": "likes",
              "type": "uint256"
            },
            {
              "internalType": "uint256",
              "name": "tipamount",
              "type": "uint256"
            }
          ],
          "internalType": "struct IoT.Post[]",
          "name": "",
          "type": "tuple[]"
        }
      ],
      "payable": false,
      "stateMutability": "view",
      "type": "function"
    },
    {
      "constant": true,
      "inputs": [
        {
          "internalType": "uint256",
          "name": "_id",
          "type": "uint256"
        }
      ],
      "name": "get_profile_name",
      "outputs": [
        {
          "internalType": "uint256",
          "name": "",
          "type": "uint256"
        }
      ],
      "payable": false,
      "stateMutability": "view",
      "type": "function"
    },
    {
      "constant": true,
      "inputs": [
        {
          "internalType": "uint256",
          "name": "_id",
          "type": "uint256"
        }
      ],
      "name": "get_device_sensor",
      "outputs": [
        {
          "internalType": "string",
          "name": "",
          "type": "string"
        }
      ],
      "payable": false,
      "stateMutability": "view",
      "type": "function"
    },
    {
      "constant": true,
      "inputs": [
        {
          "internalType": "uint256",
          "name": "_id",
          "type": "uint256"
        }
      ],
      "name": "get_address",
      "outputs": [
        {
          "internalType": "address",
          "name": "",
          "type": "address"
        }
      ],
      "payable": false,
      "stateMutability": "view",
      "type": "function"
    },
    {
      "constant": true,
      "inputs": [
        {
          "internalType": "uint256",
          "name": "_id",
          "type": "uint256"
        }
      ],
      "name": "get_address_balance",
      "outputs": [
        {
          "internalType": "uint256",
          "name": "",
          "type": "uint256"
        }
      ],
      "payable": false,
      "stateMutability": "view",
      "type": "function"
    },
    {
      "constant": false,
      "inputs": [
        {
          "internalType": "address payable",
          "name": "receiver",
          "type": "address"
        },
        {
          "internalType": "uint256",
          "name": "amount",
          "type": "uint256"
        }
      ],
      "name": "get_test_address_balance",
      "outputs": [
        {
          "internalType": "uint256",
          "name": "",
          "type": "uint256"
        }
      ],
      "payable": true,
      "stateMutability": "payable",
      "type": "function"
    },
    {
      "constant": true,
      "inputs": [
        {
          "internalType": "uint256",
          "name": "_id",
          "type": "uint256"
        },
        {
          "internalType": "uint256",
          "name": "_devid",
          "type": "uint256"
        }
      ],
      "name": "get_device",
      "outputs": [
        {
          "internalType": "uint256",
          "name": "",
          "type": "uint256"
        },
        {
          "internalType": "string",
          "name": "",
          "type": "string"
        },
        {
          "internalType": "string",
          "name": "",
          "type": "string"
        }
      ],
      "payable": false,
      "stateMutability": "view",
      "type": "function"
    },
    {
      "constant": false,
      "inputs": [
        {
          "internalType": "uint256",
          "name": "_id",
          "type": "uint256"
        },
        {
          "internalType": "uint256",
          "name": "_postid",
          "type": "uint256"
        },
        {
          "internalType": "address payable",
          "name": "receiver",
          "type": "address"
        },
        {
          "internalType": "uint256",
          "name": "amount",
          "type": "uint256"
        }
      ],
      "name": "transfer_like",
      "outputs": [],
      "payable": true,
      "stateMutability": "payable",
      "type": "function"
    }
  ],
  "bytecode": "0x608060405234801561001057600080fd5b50612016806100206000396000f3fe6080604052600436106100dd5760003560e01c80638da5cb5b1161007f578063bab6f4b311610059578063bab6f4b314610301578063e5f861e01461031d578063ebca4cbd14610346578063f886f40614610383576100dd565b80638da5cb5b1461025a578063a380dbb614610285578063ae780054146102c2576100dd565b8063619e3d96116100bb578063619e3d9614610199578063679e32e3146101c257806376fe7029146101f2578063810bf2f814610231576100dd565b806309c27076146100e25780630aaaba6e1461011f578063493f4f741461015c575b600080fd5b3480156100ee57600080fd5b506101096004803603610104919081019061178d565b6103c0565b6040516101169190611d8a565b60405180910390f35b34801561012b57600080fd5b506101466004803603610141919081019061178d565b610501565b6040516101539190611d46565b60405180910390f35b34801561016857600080fd5b50610183600480360361017e919081019061178d565b6106fb565b6040516101909190611ccb565b60405180910390f35b3480156101a557600080fd5b506101c060048036036101bb9190810190611855565b610748565b005b6101dc60048036036101d791908101906116ea565b61084a565b6040516101e99190611d8a565b60405180910390f35b3480156101fe57600080fd5b506102196004803603610214919081019061178d565b61089c565b60405161022893929190611ce6565b60405180910390f35b34801561023d57600080fd5b5061025860048036036102539190810190611914565b61098b565b005b34801561026657600080fd5b5061026f610a8b565b60405161027c9190611ccb565b60405180910390f35b34801561029157600080fd5b506102ac60048036036102a7919081019061178d565b610ab0565b6040516102b99190611d68565b60405180910390f35b3480156102ce57600080fd5b506102e960048036036102e491908101906117b6565b610d16565b6040516102f893929190611da5565b60405180910390f35b61031b600480360361031691908101906117f2565b610fef565b005b34801561032957600080fd5b50610344600480360361033f9190810190611726565b611138565b005b34801561035257600080fd5b5061036d6004803603610368919081019061178d565b61122a565b60405161037a9190611d8a565b60405180910390f35b34801561038f57600080fd5b506103aa60048036036103a5919081019061178d565b61128e565b6040516103b79190611d24565b60405180910390f35b60006103ca611516565b600383815481106103d757fe5b90600052602060002090600502016040518060600160405290816000820160009054906101000a900473ffffffffffffffffffffffffffffffffffffffff1673ffffffffffffffffffffffffffffffffffffffff1673ffffffffffffffffffffffffffffffffffffffff168152602001600182018054600181600116156101000203166002900480601f0160208091040260200160405190810160405280929190818152602001828054600181600116156101000203166002900480156104df5780601f106104b4576101008083540402835291602001916104df565b820191906000526020600020905b8154815290600101906020018083116104c257829003601f168201915b5050505050815260200160028201548152505090508060400151915050919050565b60606003828154811061051057fe5b90600052602060002090600502016004016000838152602001908152602001600020805480602002602001604051908101604052809291908181526020016000905b828210156106f057838290600052602060002090600602016040518060c00160405290816000820154815260200160018201548152602001600282018054600181600116156101000203166002900480601f0160208091040260200160405190810160405280929190818152602001828054600181600116156101000203166002900480156106225780601f106105f757610100808354040283529160200191610622565b820191906000526020600020905b81548152906001019060200180831161060557829003601f168201915b50505050508152602001600382018054600181600116156101000203166002900480601f0160208091040260200160405190810160405280929190818152602001828054600181600116156101000203166002900480156106c45780601f10610699576101008083540402835291602001916106c4565b820191906000526020600020905b8154815290600101906020018083116106a757829003601f168201915b505050505081526020016004820154815260200160058201548152505081526020019060010190610552565b505050509050919050565b6000806003838154811061070b57fe5b906000526020600020906005020160000160009054906101000a900473ffffffffffffffffffffffffffffffffffffffff16905080915050919050565b61075061154d565b6040518060a001604052808781526020018681526020018581526020018481526020018381525090506003868154811061078657fe5b9060005260206000209060050201600301600087815260200190815260200160002081908060018154018082558091505090600182039060005260206000209060050201600090919290919091506000820151816000015560208201518160010155604082015181600201908051906020019061080492919061157c565b50606082015181600301908051906020019061082192919061157c565b50608082015181600401908051906020019061083e92919061157c565b50505050505050505050565b60003491508273ffffffffffffffffffffffffffffffffffffffff166108fc839081150290604051600060405180830381858888f19350505050158015610895573d6000803e3d6000fd5b5092915050565b600381815481106108a957fe5b90600052602060002090600502016000915090508060000160009054906101000a900473ffffffffffffffffffffffffffffffffffffffff1690806001018054600181600116156101000203166002900480601f01602080910402602001604051908101604052809291908181526020018280546001816001161561010002031660029004801561097b5780601f106109505761010080835404028352916020019161097b565b820191906000526020600020905b81548152906001019060200180831161095e57829003601f168201915b5050505050908060020154905083565b6109936115fc565b6040518060c00160405280888152602001878152602001868152602001858152602001848152602001838152509050600387815481106109cf57fe5b90600052602060002090600502016004016000888152602001908152602001600020819080600181540180825580915050906001820390600052602060002090600602016000909192909190915060008201518160000155602082015181600101556040820151816002019080519060200190610a4d92919061157c565b506060820151816003019080519060200190610a6a92919061157c565b506080820151816004015560a0820151816005015550505050505050505050565b6000809054906101000a900473ffffffffffffffffffffffffffffffffffffffff1681565b6060610aba61154d565b60038381548110610ac757fe5b906000526020600020906005020160030160008481526020019081526020016000208381548110610af457fe5b90600052602060002090600502016040518060a00160405290816000820154815260200160018201548152602001600282018054600181600116156101000203166002900480601f016020809104026020016040519081016040528092919081815260200182805460018160011615610100020316600290048015610bba5780601f10610b8f57610100808354040283529160200191610bba565b820191906000526020600020905b815481529060010190602001808311610b9d57829003601f168201915b50505050508152602001600382018054600181600116156101000203166002900480601f016020809104026020016040519081016040528092919081815260200182805460018160011615610100020316600290048015610c5c5780601f10610c3157610100808354040283529160200191610c5c565b820191906000526020600020905b815481529060010190602001808311610c3f57829003601f168201915b50505050508152602001600482018054600181600116156101000203166002900480601f016020809104026020016040519081016040528092919081815260200182805460018160011615610100020316600290048015610cfe5780601f10610cd357610100808354040283529160200191610cfe565b820191906000526020600020905b815481529060010190602001808311610ce157829003601f168201915b50505050508152505090508060400151915050919050565b6000606080600060608060008090505b60038981548110610d3357fe5b906000526020600020906005020160030160008a815260200190815260200160002080549050811015610fdb5760038981548110610d6d57fe5b906000526020600020906005020160030160008a81526020019081526020016000208181548110610d9a57fe5b906000526020600020906005020160010154881415610fce5760038981548110610dc057fe5b906000526020600020906005020160030160008a81526020019081526020016000208181548110610ded57fe5b906000526020600020906005020160010154935060038981548110610e0e57fe5b906000526020600020906005020160030160008a81526020019081526020016000208181548110610e3b57fe5b90600052602060002090600502016003018054600181600116156101000203166002900480601f016020809104026020016040519081016040528092919081815260200182805460018160011615610100020316600290048015610ee05780601f10610eb557610100808354040283529160200191610ee0565b820191906000526020600020905b815481529060010190602001808311610ec357829003601f168201915b5050505050925060038981548110610ef457fe5b906000526020600020906005020160030160008a81526020019081526020016000208181548110610f2157fe5b90600052602060002090600502016002018054600181600116156101000203166002900480601f016020809104026020016040519081016040528092919081815260200182805460018160011615610100020316600290048015610fc65780601f10610f9b57610100808354040283529160200191610fc6565b820191906000526020600020905b815481529060010190602001808311610fa957829003601f168201915b505050505091505b8080600101915050610d26565b508282829550955095505050509250925092565b60008090505b6003858154811061100257fe5b9060005260206000209060050201600401600086815260200190815260200160002080549050811015611131576003858154811061103c57fe5b90600052602060002090600502016004016000868152602001908152602001600020818154811061106957fe5b9060005260206000209060060201600101548414156111245760016003868154811061109157fe5b9060005260206000209060050201600401600087815260200190815260200160002082815481106110be57fe5b9060005260206000209060060201600401600082825401925050819055508273ffffffffffffffffffffffffffffffffffffffff166108fc839081150290604051600060405180830381858888f19350505050158015611122573d6000803e3d6000fd5b505b8080600101915050610ff5565b5050505050565b611140611516565b60405180606001604052808573ffffffffffffffffffffffffffffffffffffffff1681526020018481526020018381525090506003819080600181540180825580915050906001820390600052602060002090600502016000909192909190915060008201518160000160006101000a81548173ffffffffffffffffffffffffffffffffffffffff021916908373ffffffffffffffffffffffffffffffffffffffff160217905550602082015181600101908051906020019061120492919061157c565b506040820151816002015550505060046000815480929190600101919050555050505050565b6000806003838154811061123a57fe5b906000526020600020906005020160000160009054906101000a900473ffffffffffffffffffffffffffffffffffffffff1690508073ffffffffffffffffffffffffffffffffffffffff1631915050919050565b60606003828154811061129d57fe5b90600052602060002090600502016003016000838152602001908152602001600020805480602002602001604051908101604052809291908181526020016000905b8282101561150b57838290600052602060002090600502016040518060a00160405290816000820154815260200160018201548152602001600282018054600181600116156101000203166002900480601f0160208091040260200160405190810160405280929190818152602001828054600181600116156101000203166002900480156113af5780601f10611384576101008083540402835291602001916113af565b820191906000526020600020905b81548152906001019060200180831161139257829003601f168201915b50505050508152602001600382018054600181600116156101000203166002900480601f0160208091040260200160405190810160405280929190818152602001828054600181600116156101000203166002900480156114515780601f1061142657610100808354040283529160200191611451565b820191906000526020600020905b81548152906001019060200180831161143457829003601f168201915b50505050508152602001600482018054600181600116156101000203166002900480601f0160208091040260200160405190810160405280929190818152602001828054600181600116156101000203166002900480156114f35780601f106114c8576101008083540402835291602001916114f3565b820191906000526020600020905b8154815290600101906020018083116114d657829003601f168201915b505050505081525050815260200190600101906112df565b505050509050919050565b6040518060600160405280600073ffffffffffffffffffffffffffffffffffffffff16815260200160608152602001600081525090565b6040518060a0016040528060008152602001600081526020016060815260200160608152602001606081525090565b828054600181600116156101000203166002900490600052602060002090601f016020900481019282601f106115bd57805160ff19168380011785556115eb565b828001600101855582156115eb579182015b828111156115ea5782518255916020019190600101906115cf565b5b5090506115f89190611632565b5090565b6040518060c001604052806000815260200160008152602001606081526020016060815260200160008152602001600081525090565b61165491905b80821115611650576000816000905550600101611638565b5090565b90565b60008135905061166681611f8e565b92915050565b60008135905061167b81611fa5565b92915050565b600082601f83011261169257600080fd5b81356116a56116a082611e17565b611dea565b915080825260208301602083018583830111156116c157600080fd5b6116cc838284611f3b565b50505092915050565b6000813590506116e481611fbc565b92915050565b600080604083850312156116fd57600080fd5b600061170b8582860161166c565b925050602061171c858286016116d5565b9150509250929050565b60008060006060848603121561173b57600080fd5b600061174986828701611657565b935050602084013567ffffffffffffffff81111561176657600080fd5b61177286828701611681565b9250506040611783868287016116d5565b9150509250925092565b60006020828403121561179f57600080fd5b60006117ad848285016116d5565b91505092915050565b600080604083850312156117c957600080fd5b60006117d7858286016116d5565b92505060206117e8858286016116d5565b9150509250929050565b6000806000806080858703121561180857600080fd5b6000611816878288016116d5565b9450506020611827878288016116d5565b93505060406118388782880161166c565b9250506060611849878288016116d5565b91505092959194509250565b600080600080600060a0868803121561186d57600080fd5b600061187b888289016116d5565b955050602061188c888289016116d5565b945050604086013567ffffffffffffffff8111156118a957600080fd5b6118b588828901611681565b935050606086013567ffffffffffffffff8111156118d257600080fd5b6118de88828901611681565b925050608086013567ffffffffffffffff8111156118fb57600080fd5b61190788828901611681565b9150509295509295909350565b60008060008060008060c0878903121561192d57600080fd5b600061193b89828a016116d5565b965050602061194c89828a016116d5565b955050604087013567ffffffffffffffff81111561196957600080fd5b61197589828a01611681565b945050606087013567ffffffffffffffff81111561199257600080fd5b61199e89828a01611681565b93505060806119af89828a016116d5565b92505060a06119c089828a016116d5565b9150509295509295509295565b60006119d98383611b99565b905092915050565b60006119ed8383611c1d565b905092915050565b6119fe81611eed565b82525050565b6000611a0f82611e63565b611a198185611ea9565b935083602082028501611a2b85611e43565b8060005b85811015611a675784840389528151611a4885826119cd565b9450611a5383611e8f565b925060208a01995050600181019050611a2f565b50829750879550505050505092915050565b6000611a8482611e6e565b611a8e8185611eba565b935083602082028501611aa085611e53565b8060005b85811015611adc5784840389528151611abd85826119e1565b9450611ac883611e9c565b925060208a01995050600181019050611aa4565b50829750879550505050505092915050565b6000611af982611e84565b611b038185611edc565b9350611b13818560208601611f4a565b611b1c81611f7d565b840191505092915050565b6000611b3282611e79565b611b3c8185611ecb565b9350611b4c818560208601611f4a565b611b5581611f7d565b840191505092915050565b6000611b6b82611e79565b611b758185611edc565b9350611b85818560208601611f4a565b611b8e81611f7d565b840191505092915050565b600060a083016000830151611bb16000860182611cad565b506020830151611bc46020860182611cad565b5060408301518482036040860152611bdc8282611b27565b91505060608301518482036060860152611bf68282611b27565b91505060808301518482036080860152611c108282611b27565b9150508091505092915050565b600060c083016000830151611c356000860182611cad565b506020830151611c486020860182611cad565b5060408301518482036040860152611c608282611b27565b91505060608301518482036060860152611c7a8282611b27565b9150506080830151611c8f6080860182611cad565b5060a0830151611ca260a0860182611cad565b508091505092915050565b611cb681611f31565b82525050565b611cc581611f31565b82525050565b6000602082019050611ce060008301846119f5565b92915050565b6000606082019050611cfb60008301866119f5565b8181036020830152611d0d8185611b60565b9050611d1c6040830184611cbc565b949350505050565b60006020820190508181036000830152611d3e8184611a04565b905092915050565b60006020820190508181036000830152611d608184611a79565b905092915050565b60006020820190508181036000830152611d828184611aee565b905092915050565b6000602082019050611d9f6000830184611cbc565b92915050565b6000606082019050611dba6000830186611cbc565b8181036020830152611dcc8185611aee565b90508181036040830152611de08184611aee565b9050949350505050565b6000604051905081810181811067ffffffffffffffff82111715611e0d57600080fd5b8060405250919050565b600067ffffffffffffffff821115611e2e57600080fd5b601f19601f8301169050602081019050919050565b6000819050602082019050919050565b6000819050602082019050919050565b600081519050919050565b600081519050919050565b600081519050919050565b600081519050919050565b6000602082019050919050565b6000602082019050919050565b600082825260208201905092915050565b600082825260208201905092915050565b600082825260208201905092915050565b600082825260208201905092915050565b6000611ef882611f11565b9050919050565b6000611f0a82611f11565b9050919050565b600073ffffffffffffffffffffffffffffffffffffffff82169050919050565b6000819050919050565b82818337600083830152505050565b60005b83811015611f68578082015181840152602081019050611f4d565b83811115611f77576000848401525b50505050565b6000601f19601f8301169050919050565b611f9781611eed565b8114611fa257600080fd5b50565b611fae81611eff565b8114611fb957600080fd5b50565b611fc581611f31565b8114611fd057600080fd5b5056fea365627a7a72315820e717985a121520233ebc49ebae96c3a7bd7072d020c1ab2d3b3b8df7725dc3b66c6578706572696d656e74616cf564736f6c63430005100040",
  "source": "pragma solidity >=0.4.21 <0.7.0;\npragma experimental ABIEncoderV2;\n\ncontract IoT {\n  address public owner;\n\nmapping(uint => Profile) Profile_map;\nmapping(address => uint) balances;\n\nstruct Profile{\n    address owner;\n    string username;\n    uint password;\n    mapping(uint => Device[]) Device_map;\n    mapping(uint => Post[]) Post_map;\n}\n\nstruct Device{\n    uint id;\n    uint devid;\n    string sensor;\n    string topic;\n    string symbol;\n}\n\nstruct Post{\n    uint id;\n    uint postid;\n    string post;\n    string symbol;\n    uint likes;\n    uint tipamount;\n}\n\nProfile[] public new_list;\nuint counter;\n\nfunction create_profile(address _owner, string memory _username, uint _password) public{\n    Profile memory m = Profile(_owner, _username, _password);\n    new_list.push(m);\n    counter++;\n}\n\nfunction create_device(uint _id, uint _devid, string memory _sensor, string memory _topic, string memory _symbol) public{\n    Device memory m =  Device(_id, _devid, _sensor, _topic, _symbol);\n    new_list[_id].Device_map[_id].push(m);\n}\n\nfunction create_post(uint _id, uint _postid, string memory _post, string memory _symbol, uint _likes, uint _tipamount) public{\n    Post memory m =  Post(_id, _postid, _post, _symbol, _likes, _tipamount);\n    new_list[_id].Post_map[_id].push(m);\n}\n\nfunction get_all_device(uint _id)public view returns(Device [] memory){\n    return new_list[_id].Device_map[_id];\n}\n\nfunction get_all_post(uint _id)public view returns(Post [] memory){\n    return new_list[_id].Post_map[_id];\n}\n\nfunction get_profile_name(uint _id)public view returns(uint){\n     Profile memory m = new_list[_id];\n    return m.password;\n} \n\nfunction get_device_sensor(uint _id)public view returns(string memory){\n    Device memory m = new_list[_id].Device_map[_id][_id];\n    return m.sensor;\n}   \n\nfunction get_address(uint _id)public view returns(address){\n    address s = new_list[_id].owner;\n    return s;\n}\n\nfunction get_address_balance(uint _id)public view returns(uint){\n    address s = new_list[_id].owner;\n    return s.balance;\n}\n\nfunction get_test_address_balance(address payable receiver, uint amount)public payable returns(uint){\n   // address s = new_list[_id].owner;\n   amount = msg.value;\n    receiver.transfer(amount);\n}\n\nfunction get_device(uint _id, uint _devid)public view returns(uint, string memory, string memory){\n   \n   uint devid;\n   string memory topic;\n   string memory sensor;\n   for(uint i = 0; i < new_list[_id].Device_map[_id].length; i++){\n       \n       if(_devid == new_list[_id].Device_map[_id][i].devid){\n           \n           devid = new_list[_id].Device_map[_id][i].devid;\n           topic = new_list[_id].Device_map[_id][i].topic;\n           sensor = new_list[_id].Device_map[_id][i].sensor;\n       }\n   }\n    return (devid, topic, sensor);\n}\n\nfunction transfer_like(uint _id, uint _postid, address payable receiver, uint amount)public payable{\n   \n   for(uint i = 0; i < new_list[_id].Post_map[_id].length; i++){\n       \n       if(_postid == new_list[_id].Post_map[_id][i].postid){\n           new_list[_id].Post_map[_id][i].likes += 1;\n            receiver.transfer(amount);\n       }\n   }\n   \n}\n\n\n}\n",
  "sourcePath": "C:/Users/robel/react-apps/iot_new_test/contracts/iot.sol",
  "compiler": {
    "name": "solc",
    "version": "0.5.16+commit.9c3226ce.Emscripten.clang"
  },
  "schemaVersion": "3.3.4",
  "updatedAt": "2021-04-04T11:17:21.672Z",
  "devdoc": {
    "methods": {}
  },
  "userdoc": {
    "methods": {}
  }
}